:100000000528000000000000D52A0A3086000030D4
:1000100085008316313086000330850083128C0101
:100020009E01831601138115811283128B100B160A
:100030000B118B168B17061E98280C1D1B281508F4
:1000400096000C111608703A031998281608643A9D
:10005000031948281608623A031932282F2816086F
:1000600022221B2803019E00861106150301A322EC
:10007000D121003A031D4228C32252302222061108
:1000800086151B28C3227230222284309E001B2832
:1000900003019E0006118615980199019A019B01A2
:1000A0002A229F3E0F399C009C0E613E22222A226A
:1000B0009F3E0F399C07613E22222F2243221C08BB
:1000C0001606663003196F3022222A22960016087F
:1000D000723A0319502816086E3A03199228160826
:1000E000653A031D65281C085A2204309800023026
:1000F00099001A089C002F2243229A011C08160618
:10010000031D1A14990A0319980A1B089C002F2230
:1001100043221C081606031D1A1470301A18633087
:1001200022221B28990A0319980A1C085A225028CF
:1001300003019E00861106150422003A031DCE2AF3
:10014000A322D121003A031D3F29C3220301BE226D
:100150000301BE2242302222AC220301BE229801BA
:100160000230990006309D005E22432216080F39A6
:10017000A200CA2243221608A300CA221808043A81
:10018000031DD4281908023A031DD42804309D0009
:100190005E228C221C080F390C3A0319E2280C301D
:1001A000A2000030A300D4287A3022225D21003A38
:1001B000031D45291808043A031DB2281908023AFC
:1001C000031DB228C3220301BE220301BE2249300F
:1001D0002222A3229F21003A031D4B29C32203019F
:1001E000BE220301BE224D302222B5229F21003AB9
:1001F000031D5129C3220301BE220301BE22583030
:100200002222AC22980101309900432216081F399E
:10021000A300A20102309D005E2223089D009C01E4
:10022000722208309D005E22093097000301BE2231
:10023000970B16290E309D005E22143085000301B5
:10024000BE2204309D005E228C221D081F39230629
:10025000031D57291C3085000301BE2204309D0078
:100260005E228C221D081F392306031D5729C32235
:100270004330222203019E00061186151B28C3224B
:1002800084309E00623022221B28C32284309E00CC
:10029000693022221B28C32284309E006D30222226
:1002A0001B28C32284309E00783022221B28C322C0
:1002B00084309E00633022221B28A10102309D0061
:1002C0005E2222089C0023089D00722208309D00B7
:1002D0005E22000000000E309D005E22A10A043064
:1002E0009D005E228C221C080F392206031D9A29CC
:1002F0001D082306031D9A292108A107A107A107AC
:10030000A107A107A107A107A107A107A107023023
:100310009D005E2222089C0023089D007222083066
:100320009D005E22000000000E309D005E22A10BA9
:10033000872900342108083A031D5E2901349801F9
:100340000230990006309D005E22432216080F39C4
:10035000A200CA2243221608A300CA2204309D002C
:100360005E228C221C080F392206031DD0291D088D
:100370002306031DD0291808043A031DA2291908D1
:10038000003A031DA22906309D005E2204309D0024
:100390005E228C221C080F390C3A031DD029003430
:1003A000013404309D005E228C221D081F391F3A43
:1003B000031D032A990106309D005E2204309D0032
:1003C0005E228C221D08FF3A031D032A1C080F39E8
:1003D0000F3A031D032A990BDB29FF3099000630E1
:1003E0009D005E2204309D005E228C221D08FF3A93
:1003F000031D032A1C080F390F3A031D032A990312
:10040000031DEF2900340134990198019B019A01E1
:100410004322CA2216085A221808043A031D082A41
:100420001908023A031D082A4322CA2216081A068E
:10043000031D212A4322CA2216081B06031D212A56
:10044000003401340C18222A93000A3092009400E0
:100450000C1408000C1D2A2A15080C110800A00114
:10046000A00A0319CE2A180D0E39A03E2223161811
:10047000302A190831231618CE2A1C0831231618E1
:10048000CE2A5A230800A001A00A0319CE2A180D6B
:100490000E39A03E22231618442A190831231618B3
:1004A000CE2A180D0E39A13E22231618CE2A522329
:1004B0005A2308009B0703189A0A08000630960082
:1004C00006131D1806170000000086170000000024
:1004D000000000008613000000009D0C0613960B20
:1004E000602A080003109D0D9C0D1F309C051030E4
:1004F000960006131D18061700000000861700005E
:100500000000000000008613000000009C0C9D0C01
:100510000613960B792A08001030970006178617E5
:10052000F030BE229C13861A9C17000000000000C9
:10053000000000000000861303119C0C9D0C970B1B
:100540008F2A061308008613061304308500030162
:10055000BE2214308500080086130613083085007B
:100560000301BE22183085000800861306130C30E4
:1005700085000301BE221C3085000800960096030A
:10058000031DBF2A080006138613000000000301A4
:1005900085000800990A0319980A0800C3229E01E1
:1005A0008615061188309E00D22A8D0003088E0021
:1005B00083120B1DE22A533081000B110C180D23FE
:1005C0008C18FC220B1AF2229E1FEC2A9F0A031D94
:1005D000EC2A1E080C3986068D0E0E0883000D0EBF
:1005E0008B1708008B1C0800093091000B128B1030
:1005F0008C1401308F0008008F0B080002308F0030
:10060000900C901306189017910B08008C108B100B
:100610000B16100895000C150800940B080002300A
:10062000940012080A3A031D182B86109203080042
:1006300013188614131C86100314930C920B0800D5
:100640000C1008008312960085182B2B83160514B6
:1006500076237C2376238316051076238510762354
:100660001608960008309700960D8316051003189B
:10067000051476237C2376238510970B342B0514E1
:100680007C2376238312051C4A2B722376230130A8
:1006900096005A2B72237623960183120800612359
:1006A0000510532B61237C237623851076230510B8
:1006B0008312080083167C23762305147623831285
:1006C000080083160830970005147C237623031056
:1006D000831205180314960D831685107623970B45
:1006E000652B080083168510051008000000000027
:1006F000000000000000080085148312851C7E2B7A
:040700008316080054
:00000001FF
