:100000000528000000000000D42A0A308600030101
:1000100085008316313086000330850083128C0101
:10002000831601138115811283128B100B160B118D
:100030008B168B17061E97280C1D1A28150896007C
:100040000C111608703A031997281608643A031918
:1000500047281608623A031931282E28160821224B
:100060001A2803019E00861106150301A222D02141
:10007000003A031D4128C222523021220611861562
:100080001A28C2227230212284309E001A280301CD
:100090009E0006118615980199019A019B0129225B
:1000A0009F3E0F399C009C0E613E212229229F3EDB
:1000B0000F399C07613E21222E2242221C0816067F
:1000C000663003196F302122292296001608723AF1
:1000D00003194F2816086E3A031991281608653A35
:1000E000031D64281C08592204309800023099002E
:1000F0001A089C002E2242229A011C081606031D93
:100100001A14990A0319980A1B089C002E224222ED
:100110001C081606031D1A1470301A1863302122A9
:100120001A28990A0319980A1C0859224F28030112
:100130009E00861106150322003A031DCD2AA22235
:10014000D021003A031D3E29C2220301BD22030132
:10015000BD2242302122AB220301BD229801023090
:10016000990006309D005D22422216080F39A20038
:10017000C92242221608A300C9221808043A031D06
:10018000D3281908023A031DD32804309D005D22AC
:100190008B221C080F390C3A0319E1280C30A200FD
:1001A0000030A300D3287A3021225C21003A031DBD
:1001B00044291808043A031DB1281908023A031DFE
:1001C000B128C2220301BD220301BD2249302122F0
:1001D000A2229E21003A031D4A29C2220301BD2208
:1001E0000301BD224D302122B4229E21003A031D7D
:1001F0005029C2220301BD220301BD225830212211
:10020000AB22980101309900422216081F39A30041
:10021000A20102309D005D2223089D009C017122F5
:1002200008309D005D22093097000301BD22970B25
:1002300015290E309D005D22143085000301BD227A
:1002400004309D005D228B221D081F392306031DEB
:1002500056291C3085000301BD2204309D005D221B
:100260008B221D081F392306031D5629C222433045
:10027000212203019E00061186151A28C22284300D
:100280009E00623021221A28C22284309E006930EA
:1002900021221A28C22284309E006D3021221A2881
:1002A000C22284309E00783021221A28C222843053
:1002B0009E00633021221A28A10102309D005D2298
:1002C00022089C0023089D00712208309D005D22B9
:1002D000000000000E309D005D22A10A04309D0048
:1002E0005D228B221C080F392206031D99291D0847
:1002F0002306031D99292108A107A107A107A1072A
:10030000A107A107A107A107A107A10702309D002E
:100310005D2222089C0023089D00712208309D0068
:100320005D22000000000E309D005D22A10B862999
:1003300000342108083A031D5D2901349801023078
:10034000990006309D005D22422216080F39A20056
:10035000C92242221608A300C92204309D005D2252
:100360008B221C080F392206031DCF291D082306E6
:10037000031DCF291808043A031DA1291908003AC2
:10038000031DA12906309D005D2204309D005D22E1
:100390008B221C080F390C3A031DCF29003401347D
:1003A00004309D005D228B221D081F391F3A031D5A
:1003B000022A990106309D005D2204309D005D22D5
:1003C0008B221D08FF3A031D022A1C080F390F3A21
:1003D000031D022A990BDA29FF30990006309D008F
:1003E0005D2204309D005D228B221D08FF3A031D13
:1003F000022A1C080F390F3A031D022A9903031D14
:10040000EE2900340134990198019B019A0142229E
:10041000C922160859221808043A031D072A190888
:10042000023A031D072A4222C92216081A06031D92
:10043000202A4222C92216081B06031D202A003446
:1004400001340C18212A93000A30920094000C14F5
:1004500008000C1D292A15080C110800A001A00A8B
:100460000319CD2A180D0E39A03E212316182F2A64
:10047000190830231618CD2A1C0830231618CD2A47
:1004800059230800A001A00A0319CD2A180D0E391E
:10049000A03E21231618432A190830231618CD2A06
:1004A000180D0E39A13E21231618CD2A51235923A8
:1004B00008009B0703189A0A0800063096000613E6
:1004C0001D1806170000000086170000000000003D
:1004D00000008613000000009D0C0613960B5F2A97
:1004E000080003109D0D9C0D1F309C0510309600D8
:1004F00006131D18061700000000861700000000F4
:10050000000000008613000000009C0C9D0C0613E8
:10051000960B782A08001030970006178617F030DF
:10052000BD229C13861A9C170000000000000000EA
:1005300000000000861303119C0C9D0C970B8E2A63
:100540000613080086130613043085000301BD223C
:100550001430850008008613061308308500030157
:10056000BD22183085000800861306130C30850064
:100570000301BD221C308500080096009603031D70
:10058000BE2A080006138613000000000301850040
:100590000800990A0319980A0800C2229E018615CC
:1005A000061188309E00D12A8D0003088E00831228
:1005B0000B1DE12A533081000B110C180C238C18F1
:1005C000FB220B1AF1229E1FEB2A9F0A031DEB2A26
:1005D0001E080C3986068D0E0E0883000D0E8B1733
:1005E00008008B1C0800093091000B128B108C1432
:1005F00001308F0008008F0B080002308F00900C34
:10060000901306189017910B08008C108B100B1686
:10061000100895000C150800940B08000230940097
:1006200012080A3A031D172B8610920308001318AC
:100630008614131C86100314930C920B08000C10E4
:1006400008008312960085182A2B8316051475233B
:100650007B237523831605107523851075231608D3
:10066000960008309700960D8316051003180514A0
:1006700075237B2375238510970B332B05147B2360
:1006800075238312051C492B7123752301309600B5
:10069000592B7123752396018312080060230510DE
:1006A000522B60237B23752385107523051083123D
:1006B000080083167B237523051475238312080015
:1006C00083160830970005147B23752303108312CB
:1006D00005180314960D831685107523970B642B4C
:1006E00008008316851005100800000000000000B7
:1006F00000000000080085148312851C7D2B8316E2
:020700000800EF
:00000001FF
