:100000000528000000000000292912308600003079
:10001000850083168C308100093086000030850011
:1000200083128C018B100B160B118B168B17031E72
:100030002B280616FE20980006121808733A03199A
:100040003C201808713A031947201808633A03192D
:100050004B209801192864007230F6201808633A82
:10006000031D19283030F6203030F6203030F620CD
:100070003030F620980119287720E820013A03193A
:1000800044286F30F62008007230F6200800DB208C
:100090006F30F6200800FE201D219F009F0EFE20DD
:1000A0001D219F04FE201D219900990EFE201D2177
:1000B0009904FE201D219A009A0EFE201D219A040B
:1000C0009320013A031967286F30F6206A287230AE
:1000D000F6206A281D0E1221F6201D081221F62096
:1000E0001E0E1221F6201E081221F62008000421FF
:1000F000023085008611831686118312FF300E218F
:100100000F3096000830850030300E210230850017
:1001100030300E21960B8228831686158312043008
:1001200085000A210800042119089B001A089C0078
:10013000E82010309600013A0319D92886199E2824
:1001400000000000000000000000000000000000AF
:1001500000000000861183169B1F861183129C0DE0
:100160009B0D0000000000000000000000000000E7
:1001700000000000000000009E0D9D0D1E1086195D
:100180001E1403300E2100000000000083168615A7
:100190008312861DC928960B9E289F030319D72812
:1001A00019089B001A089C00103096009E280A210E
:1001B00000340A210134042102308500E820303067
:1001C0000E21003085008316861583120A2108004F
:1001D00040309600861DEA2812309700861DF328CD
:1001E000970BEE280034960BEA2801340C18F628F9
:1001F00093000A30920094000C14080064000C1D57
:10020000FE2815080C1108000C080339031D0429E9
:100210008B1308000B118B108B170800FF3E031D7A
:100220000E2908000F39A000F63E03181A292008ED
:10023000303E08002008573E0800A000B03E0318DA
:1002400025292008D03E0F3908002008A93E0F3983
:1002500008008D0003088E0083120B1D3629CE3056
:1002600081000B110C1859218C1848210B1A3E21C2
:100270008D0E0E0883000D0E8B1708008B1C0800D6
:10028000093091000B128B108C1401308F00080084
:100290008F0B080002308F00900C901306189017F7
:1002A000910B08008C108B100B16100895000C1584
:1002B0000800940B08000230940012080A3A031D4B
:1002C000642986109203080013188614131C8610E4
:0C02D0000314930C920B08000C100800A3
:00000001FF
