:10000000052800000000000005008501FF30831670
:100010008500831286010301831686008312003057
:1000200006143B20061086143B20861006153B2044
:10003000061186153B20861106163B2006128616F1
:100040003B20861206173B20061386173B2086139B
:1000500006173B20061386163B20861206163B2009
:10006000061286153B20861106153B2006118614C4
:100070003B208610102802308D0002308C008C0B43
:080080003F288D0B3D2808000C
:02400E00F93F78
:00000001FF
