:10000000000185008600900094008316FF30850073
:10001000AF308600831206130616861A0C280616C1
:10002000851410084C20900A851014088320003E87
:1000300003191D286320940A152808309500060826
:1000400094003030940D031831306320950B212833
:10005000000194000D3063200A30632064303220A8
:100060000C28013005143820051000013820080044
:100070008C008D0100000000000000000000000066
:1000800000008D0F3A288C0B3A2808008F000001E1
:1000900038208F0B472808009100643092005720C9
:1000A0000A3092005720013092005720080030306B
:1000B00093001208930A910203185A289303910798
:1000C0001308632008008E00031072200830960089
:1000D0008E0C7220960B6828031472200314722071
:1000E00000000800831603187928061383120617E8
:1000F0007D280613831206130000061686308D0035
:100100008D0B80280800820720346D3465347334E9
:10011000733461346734673469346F342034643441
:1001200069342034703472346F347634613420345E
:0E0130002D342034523442343D342034003417
:02400E00FA3F77
:00000001FF
