:020000001528C1
:100008009100030E92008D03031D0D2805308D000D
:100018008C03100885060B11120E8300910E110E29
:100028000900FF3085008316FC308500813081008F
:10003800831201308D009001A0308B008901831656
:10004800081483120808031922282C20890A232857
:100058008E000E090319442807308F008E1B37289D
:100068008F038E0D32288E0D8E1F4B208E1B49203C
:100078008E0D0F3051208F0B38281E30512008006C
:100088001E3051202D30512008002D304C280F30C3
:10009800101451201010051408008C008C1F5228D1
:0200A80008004E
:02400E00FA3F77
:1042000010000200140014000F00FF000B000F004C
:0A4210000A0014000C00FF0000007B
:00000001FF
